:020000040800F2
:10000000C00600202D02000833300008BF0A000897
:100010003130000825070008993D00080000000065
:100020000000000000000000000000004F38000841
:100030002707000800000000C53400081139000837
:10004000470200084702000847020008470200086C
:100050004702000847020008290700084702000875
:1000600047020008610700087307000847020008FC
:10007000470200084702000847020008470200083C
:10008000470200084702000847020008470200082C
:10009000470200084702000847020008C907000895
:1000A000470200084702000847020008470200080C
:1000B000470200086539000889390008470200082E
:1000C00047020008470200084702000847020008EC
:1000D00047020008FD3B00084702000847020008ED
:1000E00047020008470200084702000847020008CC
:1000F00047020008470200084702000847020008BC
:100100004702000847020008C539000847020008F6
:1001100047020008470200084D3A0008470200085D
:10012000470200084702000847020008470200088B
:1001300000F002F800F06BF80AA090E8000C82448E
:100140008344AAF10107DA4501D100F060F8AFF26B
:10015000090EBAE80F0013F0010F18BFFB1A43F0A5
:1001600001031847F8690000186A00000A444FF0BC
:10017000000C10F8013B13F0070408BF10F8014B06
:100180001D1108BF10F8015B641E05D010F8016B4B
:10019000641E01F8016BF9D113F0080F1EBF10F8AF
:1001A000014BAD1C0C1B09D16D1E58BF01F801CBD2
:1001B000FAD505E014F8016B01F8016B6D1EF9D555
:1001C0009142D6D37047000000230024002500266A
:1001D000103A28BF78C1FBD8520728BF30C148BFAA
:1001E0000B607047642900F09D80752900F09A80AB
:1001F000782900F0D380632900F02782732900F06A
:100200002C82002070471FB51FBD10B510BD00F037
:1002100057FA1146FFF7F7FF03F026FE00F075FAD4
:1002200003B4FFF7F2FF03BC03F0BEFD09488047AB
:1002300009480047FEE7FEE7FEE7FEE7FEE7FEE7C8
:10024000FEE7FEE7FEE7FEE704480549034A054BE3
:10025000704700001539000831010008C002002075
:10026000C0060020C0020020704700000FB40449FF
:1002700010B503AA029800F0F5F910BC5DF814FB64
:100280004000002070B5044685690068C10601D5AC
:10029000302600E02026C00707D070BDD4E9012138
:1002A00030469047206A401C20626D1EF6D570BD16
:1002B00070B5044685690078C00707D170BDD4E9E0
:1002C000012120209047206A401C20626D1EF6D537
:1002D00070BD70B50C460546012A05D02878800609
:1002E00000D5EA69002302E0012305E05B1C93428C
:1002F00002D2E05C0028F9D1A869E618C01AA8610A
:10030000286A184428622846FFF7BCFF04E0D5E9B4
:10031000012114F8010B9047B442F8D32846FFF7A7
:10032000C7FF70BD2DE9F04106460024106875290D
:10033000314616A510D0AFF30080002802DA404203
:1003400013A507E031688A0701D512A502E0490725
:1003500004D511A5012401E0AFF3008000210A2299
:1003600006F1240709E0B0FBF2FCB0FBF2F302FB5C
:100370001C00303078541846491C0028F3D123461D
:100380002A463046BDE8F04100F0FCB8000000000D
:100390002D0000002B0000002000000070B5044676
:1003A0000D4621461068AFF300802188090502D56B
:1003B0000F4A7A4402E00E4A7A440E32002104F1D8
:1003C000240305E000F00F060009965D5E54491C09
:1003D0000028F7D120780023000704D5702D02D023
:1003E00009B1022311322046BDE8704000F0CAB8BE
:1003F000A86600002DE9F05F894604464FF0000A28
:10040000DFF874B1FB44C0F820A02046E1688847BB
:10041000002874D0252806D0D4E901219047206A0D
:10042000401C2062F1E700265F462046E1688847CD
:100430002028054607DB312D05D2781910F8200C4D
:1004400008B10643F1E7B00701D526F00406C4F869
:100450001CA00027C4F818A02A2D09D0284603F0B4
:100460009CFC38B304EB8708303DC8F8185019E0FD
:1004700059F8041B204604EB87029161E168884724
:10048000012F054618D1E069002820DA26F0200661
:100490001DE0D8F8180000EB800005EB4000303874
:1004A000C8F818002046E1688847054603F075FC47
:1004B0000028EED1012F0AD02E2D08D12046E16868
:1004C00088477F1C0546022F46F02006C4DBA06942
:1004D000002803DA404246F00106A061F00701D08F
:1004E00026F010066C2D0BD0682D09D04C2D39D07C
:1004F0006A2D35D0742D35D07A2D33D016E038E002
:10050000E1682F4620468847B842054609D16C2F3E
:1005100026D04FF48060E1680643204688470546B0
:1005200004E06C2F1AD04FF4807006430DB3A5F190
:100530004100192802D8203546F400664A4629466B
:10054000204626604E46FFF74DFE80B101280BD0B5
:10055000F61D26F0070000F1080956E74020E4E701
:100560008020D8E70020D6E706F104094DE72846A9
:1005700052E7206ABDE8F09F7E6600007047704732
:10058000704770472DE9F0470D469946924604465C
:1005900000F124080168880604D5E06921F0100103
:1005A000216000E00120A84201DD471B00E0002798
:1005B000A1697A1902EB0900081AA0612078C00627
:1005C00002D42046FFF75EFE002608E0D4E90121B0
:1005D0001AF806009047206A401C761C20624E459F
:1005E000F4DB2078C0060AD52046FFF74BFE06E074
:1005F000D4E9012130209047206A401C2062381E37
:10060000A7F10107F4DC07E0D4E9012118F805009F
:100610009047206A401C2062281EA5F10105F3DCEA
:100620002046FFF745FE2078000602D50220BDE8EF
:10063000F0870120FBE710B5436913B1AFF30080E9
:1006400001E0FFF746FE012010BD127800F1240101
:100650000A7000224A700122EDE711684FF0FF3264
:10066000E9E70000074B70B50D467B4400F011F838
:100670000446284600F020F810B14FF0FF3070BD5E
:10068000204670BDE337000001694A1C026108780A
:10069000704700B58FB0CDE90131002105910549C2
:1006A0007944CDE9031011466846FFF7A3FE0FB069
:1006B00000BD0000E5FFFFFF007B00F080007047F9
:1006C000754600F02BF8AE4605006946534620F00B
:1006D0000700854618B020B5FFF7B6FDBDE82040FD
:1006E0004FF000064FF000074FF000084FF0000BEE
:1006F00021F00701AC46ACE8C009ACE8C009ACE8A1
:10070000C009ACE8C0098D46704710B50446AFF388
:1007100000802046BDE81040FFF782BD00487047CA
:1007200060020020FEE7704710B50A2003F05CFB72
:100730000121094800F0BAF9012806D10749D1F88A
:10074000A00138B10020C1F8A001BDE8104001208F
:1007500000F05CB80120F6E700080140008021426B
:1007600010B50A2003F040FBBDE81040082000F05F
:100770004DB810B50A2003F037FBBDE8104010203B
:1007800000F044B83EB50821002000F001F94FF414
:100790008070002400908DF8044008208DF805003A
:1007A00001258DF80650684600F046F817208DF8B0
:1007B00008008DF809408DF80A408DF80B5002A80A
:1007C00002F038FC3EBD000010B54FF480742046A6
:1007D00000F022F801280DD1094A0020C2F8980142
:1007E0000121C2F898110748C0F88C110648017819
:1007F000491C01702046BDE8104000F007B8000019
:10080000008022420080214232000020014908601D
:100810007047000014040140064A01460020126897
:10082000044B0A4014331B680B4202D0002A00D04C
:10083000012070470004014030B51A4A83790168ED
:1008400053B313688B431360111D0B680468A343F3
:100850000B60017911440B68046823430B60114B52
:10086000083319680468A14319601C1D21680568D4
:10087000A94321604179102905D011440A68006814
:1008800002430A6030BD196802681143196021688B
:1008900000680143216030BD0079104402688A433A
:1008A000026030BD000401408000A0F1C04000297A
:1008B000016802D041F0010101E0024A11400160EB
:1008C00070470000FEFF0F0010B5D0E90112114380
:1008D000D0E903231A43114342691143826911434A
:1008E000C2691143026A1143426A1143826A114389
:1008F000C26A1143026B114302689200A2F1C04226
:1009000011608168082907D101688900A1F1C041FF
:100910000A6842F040020A60416BD1E9002342EAD2
:1009200003128B688C891B0243EA04431A430B8A27
:1009300042EA03520B7D896942EA03620A43016875
:100940008900A1F1C0414A60C16AB1F5804F08D069
:1009500000686FF070418000A0F1C040C0F8041141
:1009600010BD816BD1E9002342EA03128B680C8A27
:100970001B0243EA04531A430B7D896942EA03626E
:1009800000680A438000A0F1C040C0F8042110BDF7
:1009900010B58A0721F003040649120F21440F23E2
:1009A0008C6893409C438C608B68904003438B60C1
:1009B00010BD000000000140F0B5CC78002204F02A
:1009C0000F03E40601D58C7823430C784FF00F0C0D
:1009D00014F0FF0F4FF0010E1BD005680E880EFAC1
:1009E00002F42640A64210D196000CFA06F725EA3A
:1009F000070703FA06F5CE783D43282E02D0482E8D
:100A000002D002E0446100E00461521C082AE5D3F0
:100A100005600A88FF2A1CD94468002202F10806F2
:100A20000EFA06F50E882E40AE420ED196000CFA54
:100A300006F7BC4303FA06F7CE783C43282E00D1D4
:100A40004561CE78482E00D10561521C082AE5D3B5
:100A50004460F0BDF0B5144C002801DAE36900E011
:100A60006368450D2E0185B2C0F30157B540C0F350
:100A70000342032F05D0C6020AD503269640B3438E
:100A800007E023F07062636823F07063636002E044
:100A9000AB4343F0706201B12A43002801DAE261FE
:100AA000F0BD6260F0BD0000000001400246002081
:100AB00092680A4200D00120704701617047FEE74A
:100AC00008B50121442002F017FD1820ADF8000000
:100AD00048208DF8030069460148FFF76DFF08BD07
:100AE0000018014070B51B4C1B4D012608B1267043
:100AF00001E0207848B110212846FFF7D7FF58B110
:100B000008212846FFF7D2FF30B110212846FFF711
:100B1000CDFF012814D01AE00A2003F065F9002067
:100B2000207010212846FFF7C1FF28B10821284670
:100B3000FFF7BCFF10B10AE0012070BD022070BDBC
:100B400008212846FFF7B2FF012800D126700020B7
:100B500070BD00002C0000200018014070B509494C
:100B60000646002408884D8821464543204602F069
:100B7000CBF802F04BFA044801E00680641CAC425A
:100B8000FBD370BD880100200008006C2DE9F04FF8
:100B90002B4B2C27194698712B2589884FF4305AF6
:100BA0004FF4285B4FF4487441F6631E2A264FF039
:100BB000F00845F210594FF4A07C4FF4F072C8B120
:100BC000A3F800C0A3F80280494533D1A3F808A0D8
:100BD000A3F80AB0280298811C805A80A1F5A6408B
:100BE000103802D11A80A3F802C0BDE8F04F0020EF
:100BF00001F0E8BFA3F80080A3F802C0494507D17F
:100C0000A3F808A0A3F80AB04FF42C50988104E090
:100C100071451F8104D15D819E811A805C8001E055
:100C20005E819D81A1F5A6401038DED1A3F800C0F9
:100C30005A80DAE71F815E8171459D81CCD0CDE776
:100C4000880100202DE9F047DFF89C9092464A4643
:100C5000B9F80460DFF894C093890C0A050A528938
:100C6000A6F5A0480CF10207B8F5A2680CD0A6F5CD
:100C7000C858B8F1630816D0ACF800203D80C0B267
:100C80003880ACF8003024E0ACF800203D80521CE5
:100C9000ACF80020C0B23880ACF800303C805B1C5F
:100CA000ACF8003016E099F8066026B9B9F80050A3
:100CB000281A401E80B2ACF80020020A3A80C5B261
:100CC0003D803A80C0B23880ACF800303C80C8B279
:100CD00038803C80C8B23880B9F80800ACF8000011
:100CE000A7F800A0BDE8F08788010020FE07006C8F
:100CF0002DE9F0438146A2EB0900401C1F460C463B
:100D000085B2DFF83080079E0FE02146484601F0AB
:100D1000FBFF02F07BF90020414602E00E80401C00
:100D200080B2A842FAD3641CA4B2BC42EDD9BDE89B
:100D3000F08300000008006C2DE9F04F01219FB006
:100D4000080202F0C1FB01214FF4B47002F0D4FBA1
:100D50000120ADF83C0010208DF83F0003248DF8F1
:100D60003E400FA9FE48FFF727FE4CF23370ADF866
:100D70003C0018258DF83F508DF83E400FA9F948EA
:100D8000FFF71AFE4FF68070ADF83C008DF83F502B
:100D90008DF83E400FA9F448FFF70EFE41F2010026
:100DA000ADF83C008DF83F508DF83E400FA9EF485C
:100DB000FFF702FE0120179000200F21CDE9180156
:100DC0001A901B901C901D901090CDE91104149066
:100DD00015900621CDE9001016901021CDE90201F1
:100DE000139004900902CDE9080106900590079040
:100DF0008900CDE90A010C9017A80D9010A80E905B
:100E00006846FFF761FD01210620FFF74DFD322006
:100E100002F0EAFFD64CD320208001F0ABFED54D86
:100E2000A88001F0A7FE2946888001F0A3FE4FF6B6
:100E3000FF77294607EA0020888001F09BFE2946BB
:100E400049F2413A898847F289760843294645F2B2
:100E50001038888045F2105941F6631B504572D016
:100E60000420208001F086FEA88001F083FEA88087
:100E700001F080FE07EA0020A88001F07BFEA9882F
:100E80000843A0F50541A880523958D0B0425AD045
:100E9000D420208001F06EFEA88001F06BFEA880B7
:100EA00001F068FE07EA0020A88001F063FEA9882F
:100EB0000843A880404546D055214FF4704002F0C9
:100EC000AFF8AA214FF2010002F0AAF852214FF226
:100ED000020002F0A5F808214FF2030002F0A0F88A
:100EE00001214FF2040002F09BF84FF445402080AE
:100EF00001F040FE07EA0020A8804CF2015020805B
:100F000001F038FEA9880843A880052002F06CFF94
:100F1000A988494517D0A120208001F02BFEA88088
:100F200001F028FE07EA0020A88001F023FEA9882E
:100F30000843A0F5AE41A880613902D003E0AE803D
:100F400001E0A5F804B0A9888BA0FFF78FF9A88865
:100F5000874DAD1C50457DD1CF20208000202880BA
:100F6000C120288030202880ED2020806420288027
:100F7000032028801220288081202880E8202080DB
:100F800085202880102028807A202880CB2020806F
:100F9000392028802C202880002028803420288098
:100FA00002202880F720208020202880EA2020802E
:100FB000002028802880C02020801B202880C1207D
:100FC000208001202880C520208030202880288093
:100FD000C7202080B7202880362020804820288005
:100FE0003A20208055202880B120208000202880B1
:100FF0001A202880B62020800A202880A22028805D
:10100000F2202080002028802620208001202880B7
:10101000E02020800F2028802A2028802820288077
:10102000082028800E20288008202880542028802E
:10103000A9202880432028800A2028800F2028808B
:1010400000202880288028802880E120208000201F
:10105000288000E031E01520288017202880072014
:10106000288011202880062028802B2028805620C8
:1010700028803C20288005202880102028800F20F0
:1010800028803F20288028800F2028802B20208047
:10109000002028802880012028803F2028802A20C6
:1010A00020800020288028802880EF2028801120A0
:1010B0002080782002F098FE9EE0B0427ED1112080
:1010C0002080782002F090FE3620208000202880AA
:1010D0003A20208005202880B22020800C20288003
:1010E000288000202880332028802880B720208076
:1010F00035202880BB20208032202880C0202080FE
:101100000C202880C220208001202880C32020803D
:1011100010202880C420208020202880C620208005
:101120000F202880D0202080A4202880A120288083
:10113000E0202080D02028800020288002202880E5
:10114000072028800A202880282028803220288014
:101150004420288042202880062028800E2013E08A
:10116000000C014000140140001801400020014023
:10117000FE07006C88010020204C43442049443A7B
:1011800025780D0A000000002880122028801420F5
:10119000288017202880E1202080D020288000206F
:1011A000288002202880072028800A2028802820E4
:1011B0002880312028805420288000E01FE047202C
:1011C00028800E2028801C202880172028801B20A3
:1011D00028801E2028802A20208000202880288027
:1011E0002880EF2028802B20208000202880288045
:1011F000012028803F202880292001F02EBC404576
:101200007ED1ED20208001202880FE202880EE2045
:101210002080DE20288021202880F12020800120CD
:101220002880DF20208010202880C42020808F206C
:101230002880C620208000202880E2202880288066
:101240002880BF202080AA202880B02020800D2068
:101250002880002028800D20288000202880112050
:101260002880002028801920288000202880212024
:101270002880002028802D202880002028803D20E4
:101280002880002028805D202880002028805D2084
:10129000288000202880B120208080202880002005
:1012A00028808B20288000202880962028800020FD
:1012B0002880B220208000202880288002202880DA
:1012C000002028800320288000202880B320208050
:1012D0000020288028802880288028802880288056
:1012E00028802880288028802880288028802880BE
:1012F000288028802880288028802880288000E076
:10130000FEE328802880B42020808B2028800020C5
:1013100028809620288000202880A1202880002076
:101320002880B520208002202880002028800320EB
:101330002880002028800420288000202880B620D3
:101340002080002028802880B7202080002028804E
:1013500028803F202880002028805E2028800020D0
:10136000288064202880002028808C20288000206D
:101370002880AC20288000202880DC2028800020C5
:10138000288070202880002028809020288000203D
:101390002880EB20288000202880DC202880002066
:1013A0002880B8202080002028802880288028805D
:1013B0002880288028802880BA2020802420288027
:1013C0000020288028802880C1202080202028809C
:1013D000002028805420288000202880FF2028809A
:1013E00000202880C22020800A2028800020288019
:1013F0000420288000202880C32020803C202880D2
:10140000002028803A202880002028803920288049
:101410000020288037202880002028803C20288039
:101420000020288036202880002028803220288034
:10143000002028802F202880002028802C20288031
:10144000002028802920288000202880262028802D
:101450000020288024202880002028802420288024
:101460000020288023202880002028803C202880FD
:1014700000202880362028800020288032202880E4
:10148000002028802F202880002028802C202880E1
:1014900000202880292028800020288026202880DD
:1014A00000202880242028800020288024202880D4
:1014B000002028802320288000202880C42020802D
:1014C0006220288000202880052028800020288095
:1014D0008420288000202880F02028800020288078
:1014E0001820288000202880A42028800020288020
:1014F0001820288000202880502028800020288064
:101500000C20288000202880172028800020288098
:101510009520288000202880F32028800020288023
:10152000E620288000202880C520208032202880C6
:1015300000202880442028800020288065202880E2
:10154000002028807620288000202880882028807D
:1015500000202880C620208020202880002028808D
:101560001720288000202880012028800020288043
:10157000C720208000202880288028802880C8203C
:10158000208000202880288028802880C920208072
:101590000020288028802880288028802880288093
:1015A00028802880288028802880288028802880FB
:1015B0002880E020208016202880002028801C2001
:1015C00028800020288021202880002028803620A4
:1015D0002880002028804620288000202880522053
:1015E00028800020288064202880002028807A20FD
:1015F0002880002028808B202880002028809920A7
:10160000288000202880A820288000202880B92059
:10161000288000202880C420288000202880CA201C
:10162000288000202880D220288000202880D920EF
:10163000288000202880E020288000202880F320B7
:10164000288000202880E12020801620288000208B
:1016500028801C202880002028802220288000202C
:1016600028803620288000202880452028800020DF
:101670002880522028800020288064202880002094
:1016800028807A202880002028808B202880002035
:1016900028809920288000202880A82028800020E9
:1016A0002880B920288000202880C420288000209D
:1016B0002880CA20288000202880D220288000206E
:1016C0002880D820288000202880E0202880002042
:1016D0002880F320288000202880E2202080052018
:1016E0002880002028800B202880002028801B20B4
:1016F0002880002028803420288000202880442052
:101700002880002028804F20288000202880612009
:1017100028800020288079202880002028808820A8
:101720002880002028809720288000202880A6205C
:10173000288000202880B720288000202880C22010
:10174000288000202880C720288000202880D120E1
:10175000288000202880D620288000202880DD20B6
:10176000288000202880F320288000202880E32083
:10177000208005202880002028800A202880002042
:1017800028801C20288000202880332028800020EA
:101790002880442028800020288050202880002095
:1017A000288062202880002028807820288000203F
:1017B00028808820288000202880972028800020EA
:1017C0002880A620288000202880B720288000209C
:1017D0002880C220288000202880C7202880002060
:1017E0002880D120288000202880D5202880002033
:1017F0002880DD20288000202880F32028800020F9
:101800002880E420208001202880002028800120DA
:1018100028800020288002202880002028802A207C
:101820002880002028803C202880002028804B2011
:101830002880002028805D202880002028807420B7
:101840002880002028808420288000202880932061
:10185000288000202880A220288000202880B32013
:10186000288000202880BE20288000202880C420D6
:10187000288000202880CD20288000202880D320A8
:10188000288000202880DD20288000202880F32068
:10189000288000202880E5202080002028802880C3
:1018A0002880288002202880002028802920288065
:1018B000002028803C202880002028804B20288081
:1018C000002028805D202880002028807420288027
:1018D00000202880842028800020288093202880D1
:1018E00000202880A220288000202880B320288083
:1018F00000202880BE20288000202880C420288046
:1019000000202880CD20288000202880D320288017
:1019100000202880DC20288000202880F3202880D8
:1019200000202880E62020801120288000202880A8
:1019300034202880002028805620288000202880FD
:10194000762028800020288077202880002028808A
:101950006620288000202880882028800020288079
:101960009920288000202880BB2028800020288003
:101970009920288000202880662028800020288048
:10198000552028800020288055202880002028808D
:10199000452028800020288043202880002028809F
:1019A0004420288000202880E720208032202880C2
:1019B000002028805520288000202880762028803C
:1019C000002028806620288000202880672028802A
:1019D00000202880672028800020288087202880F9
:1019E000002028809920288000202880BB20288083
:1019F00000202880992028800020288077202880B7
:101A0000002028804420288000202880562028801C
:101A10000020288023202880002028803320288050
:101A2000002028804520288000202880E820208071
:101A30000020288028809920288000202880872066
:101A40002880002028808820288000202880772077
:101A50002880002028806620288000202880882078
:101A6000288000202880AA20288000202880BB20F1
:101A70002880002028809920288000202880662047
:101A8000288000202880552028800020288055208C
:101A9000288000202880442028800020288044209E
:101AA0002880002028805520288000202880E920D8
:101AB0002080AA202880002028802880288020805C
:101AC000AA202880CF2020800020288028802880FD
:101AD00028802880288028802880288028802880C6
:101AE000288028802880288028802880F020208056
:101AF000002028805020288000202880288000E0B6
:101B00002BE02880F320208000202880F9202080EE
:101B10000620288010202880292028800020288066
:101B20003A2020805520288011202080642002F057
:101B30005BF929202080352020800020288051203A
:101B40002080FF202880532020802C2028805520B2
:101B50002080822028802C20FDE348457ED14FF450
:101B600070495521484601F05BFA4FF20108AA215D
:101B7000404601F055FA4FF202035221184601F097
:101B80004FFA4FF203050821284601F049FA6E1C6E
:101B90000121304601F044FA0D214FF4304001F0AC
:101BA0003FFA0D214BF2010001F03AFA0D214BF200
:101BB000020001F035FA4FF4364A3421504601F064
:101BC0002FFA34214BF2016001F02AFA34214BF252
:101BD000026001F025FA4FF4314B0D21584601F017
:101BE0001FFA0D214BF2011001F01AFA0D214BF2F0
:101BF000021001F015FA34214FF4374001F010FAC9
:101C000034214BF2017001F00BFA34214BF20270D7
:101C100001F006FA00214FF4324001F001FA0021F0
:101C20004BF2012001F0FCF900214BF2022001F0FF
:101C3000F7F924214FF4384001F0F2F924214BF652
:101C4000010001F0EDF924214BF6020001F0E8F962
:101C500001214FF43F4001F0E3F900E0FEE30F21E2
:101C60004FF4334001F0DCF90F214BF2013001F069
:101C7000D7F90F214BF2023001F0D2F934214FF4A1
:101C8000394001F0CDF934214BF6011001F0C8F9CB
:101C900034214BF6021001F0C3F908214FF435400E
:101CA00001F0BEF908214BF2015001F0B9F9082109
:101CB0004BF2025001F0B4F903214FF4424001F01D
:101CC000AFF924214FF43A4001F0AAF924214BF650
:101CD000012001F0A5F924214BF6022001F0A0F922
:101CE00000214FF43C4001F09BF978214BF6014074
:101CF00001F096F900214BF6024001F091F9002124
:101D00004FF43D4001F08CF978214BF6015001F081
:101D100087F900214BF6025001F082F900214FF4BF
:101D20003E4001F07DF964214BF6016001F078F945
:101D300000214FF4514001F073F933214DF20110AD
:101D400001F06EF900214DF2021001F069F9342121
:101D50004DF2031001F064F900214DF2041001F07E
:101D60005FF93A214DF2051001F05AF900214DF2C8
:101D7000061001F055F94A214DF2071001F050F913
:101D800000214DF2081001F04BF95C214DF20910D1
:101D900001F046F900214DF20A1001F041F98121CC
:101DA0004DF20B1001F03CF900214DF20C1001F046
:101DB00037F9A6214DF20D1001F032F900214DF254
:101DC0000E1001F02DF9E5214DF20F1001F028F968
:101DD00001214DF2101001F023F913214DF21110E1
:101DE00001F01EF901214DF2121001F019F95421F0
:101DF0004DF2131001F014F901214DF2141001F00D
:101E00000FF982214DF2151001F00AF901214DF26E
:101E1000161001F005F9CA214DF2171001F000F972
:101E200002214DF2181001F0FBF800214DF21910BB
:101E300001F0F6F802214DF21A1001F0F1F801213B
:101E40004DF21B1001F0ECF802214DF21C1001F0D4
:101E5000E7F834214DF21D1001F0E2F802214DF2B5
:101E60001E1001F0DDF867214DF21F1001F0D8F8C7
:101E700002214DF2201001F0D3F884214DF22110FF
:101E800001F0CEF802214DF2221001F0C9F8A42190
:101E90004DF2231001F0C4F802214DF2241001F09C
:101EA000BFF8B7214DF2251001F0BAF802214DF22A
:101EB000261001F0B5F8CF214DF2271001F0B0F84F
:101EC00002214DF2281001F0ABF8DE214DF229106D
:101ED00001F0A6F802214DF22A1001F0A1F8F2213A
:101EE0004DF22B1001F09CF802214DF22C1001F064
:101EF00097F8FE214DF22D1001F092F803214DF2DA
:101F00002E1001F08DF810214DF22F1001F088F8FD
:101F100003214DF2301001F083F833214DF23110DE
:101F200001F07EF803214DF2321001F079F86D21B5
:101F30004DF2331001F074F800214FF4524001F0DB
:101F40006FF833214DF2012001F06AF800214DF2C3
:101F5000022001F065F834214DF2032001F060F811
:101F600000214DF2042001F05BF83A214DF20520EA
:101F700001F056F800214DF2062001F051F84A21F7
:101F80004DF2072001F04CF800214DF2082001F03D
:101F900047F85C214DF2092001F042F800214DF292
:101FA0000A2001F03DF881214DF20B2001F038F8B4
:101FB00000214DF20C2001F033F8A6214DF20D2046
:101FC00001F02EF800214DF20E2001F029F8E52154
:101FD0004DF20F2001F024F801214DF2102001F004
:101FE0001FF813214DF2112001F01AF801214DF2D2
:101FF000122001F015F854214DF2132001F010F8D1
:1020000001214DF2142001F00BF882214DF2152030
:1020100001F006F801214DF2162001F001F8CA2165
:102020004DF2172000F0FCFF02214DF2182000F0C5
:10203000F7FF00214DF2192000F0F2FF02214DF2CE
:102040001A2000F0EDFF01214DF21B2000F0E8FF07
:1020500002214DF21C2000F0E3FF34214DF21D203F
:1020600000F0DEFF02214DF21E2000F0D9FF6721B3
:102070004DF21F2000F0D4FF02214DF2202000F08D
:10208000CFFF84214DF2212000F0CAFF02214DF242
:10209000222000F0C5FFA4214DF2232000F0C0FF54
:1020A00002214DF2242000F0BBFFB7214DF2252084
:1020B00000F0B6FF02214DF2262000F0B1FFCF2143
:1020C0004DF2272000F0ACFF02214DF2282000F055
:1020D000A7FFDE214DF2292000F0A2FF02214DF2E0
:1020E0002A2000F09DFFF2214DF22B2000F098FFF6
:1020F00002214DF22C2000F093FFFE214DF22D2005
:1021000000F08EFF03214DF22E2000F089FF1021F8
:102110004DF22F2000F084FF03214DF2302000F01B
:102120007FFF33214DF2312000F07AFF03214DF281
:10213000322000F075FF6D214DF2332000F070FF6A
:1021400000214FF4534000F06BFF33214DF201307A
:1021500000F066FF00214DF2023000F061FF3421F3
:102160004DF2033000F05CFF00214DF2043000F02E
:1021700057FF3A214DF2053000F052FF00214DF299
:10218000063000F04DFF4A214DF2073000F048FFC5
:1021900000214DF2083000F043FF5C214DF2093080
:1021A00000F03EFF00214DF20A3000F039FF81219E
:1021B0004DF20B3000F034FF00214DF20C3000F0F6
:1021C0002FFFA6214DF20D3000F02AFF00214DF225
:1021D0000E3000F025FFE5214DF20F3000F020FF1A
:1021E00001214DF2103000F01BFF13214DF2113090
:1021F00000F016FF01214DF2123000F011FF5421C2
:102200004DF2133000F00CFF01214DF2143000F0BC
:1022100007FF82214DF2153000F002FF01214DF23F
:10222000163000F0FDFECA214DF2173000F0F8FE26
:1022300002214DF2183000F0F3FE00214DF219306A
:1022400000F0EEFE02214DF21A3000F0E9FE01210D
:102250004DF21B3000F0E4FE02214DF21C3000F084
:10226000DFFE34214DF21D3000F0DAFE02214DF286
:102270001E3000F0D5FE67214DF21F3000F0D0FE79
:1022800002214DF2203000F0CBFE84214DF22130AE
:1022900000F0C6FE02214DF2223000F0C1FEA42162
:1022A0004DF2233000F0BCFE02214DF2243000F04C
:1022B000B7FEB7214DF2253000F0B2FE02214DF2FB
:1022C000263000F0ADFECF214DF2273000F0A8FE01
:1022D00002214DF2283000F0A3FEDE214DF229301C
:1022E00000F09EFE02214DF22A3000F099FEF2210C
:1022F0004DF22B3000F094FE02214DF22C3000F014
:102300008FFEFE214DF22D3000F08AFE03214DF2AA
:102310002E3000F085FE10214DF22F3000F080FEAF
:1023200003214DF2303000F07BFE33214DF231308D
:1023300000F076FE03214DF2323000F071FE6D2187
:102340004DF2333000F06CFE00214FF4544000F0A9
:1023500067FE332100E080E34DF2014000F060FEB3
:1023600000214DF2024000F05BFE34214DF20340AB
:1023700000F056FE00214DF2044000F051FE3A21DB
:102380004DF2054000F04CFE00214DF2064000F0F9
:1023900047FE4A214DF2074000F042FE00214DF277
:1023A000084000F03DFE5C214DF2094000F038FE8F
:1023B00000214DF20A4000F033FE81214DF20B4026
:1023C00000F02EFE00214DF20C4000F029FEA62167
:1023D0004DF20D4000F024FE00214DF20E4000F0C1
:1023E0001FFEE5214DF20F4000F01AFE01214DF2D3
:1023F000104000F015FE13214DF2114000F010FEC8
:1024000001214DF2124000F00BFE54214DF2134019
:1024100000F006FE01214DF2144000F001FE822181
:102420004DF2154000F0FCFD01214DF2164000F088
:10243000F7FDCA214DF2174000F0F2FD02214DF2E6
:10244000184000F0EDFD00214DF2194000F0E8FDCC
:1024500002214DF21A4000F0E3FD00E0FFE201210D
:102460004DF21B4000F0DCFD02214DF21C4000F05B
:10247000D7FD34214DF21D4000F0D2FD02214DF276
:102480001E4000F0CDFD67214DF21F4000F0C8FD59
:1024900002214DF2204000F0C3FD84214DF2214085
:1024A00000F0BEFD02214DF2224000F0B9FDA42152
:1024B0004DF2234000F0B4FD02214DF2244000F023
:1024C000AFFDB7214DF2254000F0AAFD02214DF2EB
:1024D000264000F0A5FDCF214DF2274000F0A0FDE1
:1024E00002214DF2284000F09BFDDE214DF22940F3
:1024F00000F096FD02214DF22A4000F091FDF221FC
:102500004DF22B4000F08CFD02214DF22C4000F0EA
:1025100087FDFE214DF22D4000F082FD03214DF29A
:102520002E4000F07DFD10214DF22F4000F078FD8F
:1025300003214DF2304000F073FD33214DF2314064
:1025400000F06EFD03214DF2324000F069FD6D2177
:102550004DF2334000F064FD00214FF4554000F08F
:102560005FFD33214DF2015000F05AFD00214DF284
:10257000025000F055FD34214DF2035000F050FDA3
:1025800000214DF2045000F04BFD3A214DF2055070
:1025900000F046FD00214DF2065000F041FD4A21B9
:1025A0004DF2075000F03CFD00214DF2085000F0C4
:1025B00037FD5C214DF2095000F032FD00214DF253
:1025C0000A5000F02DFD81214DF20B5000F028FD46
:1025D00000214DF20C5000F023FDA6214DF20D50CC
:1025E00000F01EFD00214DF20E5000F019FDE52116
:1025F0004DF20F5000F014FD01214DF2105000F08B
:102600000FFD13214DF2115000F00AFD01214DF292
:10261000125000F005FD54214DF2135000F000FD62
:1026200001214DF2145000F0FBFC82214DF21550B7
:1026300000F0F6FC01214DF2165000F0F1FCCA2129
:102640004DF2175000F0ECFC02214DF2185000F052
:10265000E7FC00214DF2195000F0E2FC02214DF29E
:102660001A5000F0DDFC01214DF21B5000F0D8FCA7
:1026700002214DF21C5000F0D3FC34214DF21D50CC
:1026800000F0CEFC02214DF21E5000F0C9FC672183
:102690004DF21F5000F0C4FC02214DF2205000F01A
:1026A000BFFC84214DF2215000F0BAFC02214DF212
:1026B000225000F0B5FCA4214DF2235000F0B0FCF4
:1026C00002214DF2245000F0ABFCB7214DF2255011
:1026D00000F0A6FC02214DF2265000F0A1FCCF2113
:1026E0004DF2275000F09CFC02214DF2285000F0E2
:1026F00097FCDE214DF2295000F092FC02214DF2B0
:102700002A5000F08DFCF2214DF22B5000F088FC95
:1027100002214DF22C5000F083FCFE214DF22D5091
:1027200000F07EFC03214DF22E5000F079FC1021C8
:102730004DF22F5000F074FC03214DF2305000F0A8
:102740006FFC33214DF2315000F06AFC03214DF251
:10275000325000F065FC6D214DF2335000F060FC0A
:1027600000214FF4564000F05BFC33214DF2016034
:1027700000F056FC00214DF2026000F051FC3421C3
:102780004DF2036000F04CFC00214DF2046000F0BB
:1027900047FC3A214DF2056000F042FC00214DF269
:1027A000066000F03DFC4A214DF2076000F038FC65
:1027B00000214DF2086000F033FC5C214DF209600D
:1027C00000F02EFC00214DF20A6000F029FC81216E
:1027D0004DF20B6000F024FC00214DF20C6000F083
:1027E0001FFCA6214DF20D6000F01AFC00214DF2F5
:1027F0000E6000F015FCE5214DF20F6000F010FCBA
:1028000001214DF2106000F00BFC13214DF211601C
:1028100000F006FC01214DF2126000F001FC542191
:102820004DF2136000F0FCFB01214DF2146000F04A
:10283000F7FB82214DF2156000F0F2FB01214DF211
:10284000166000F0EDFBCA214DF2176000F0E8FBC6
:1028500002214DF2186000F0E3FB00214DF21960F7
:1028600000F0DEFB02214DF21A6000F0D9FB0121DD
:102870004DF21B6000F0D4FB02214DF21C6000F011
:10288000CFFB34214DF21D6000F0CAFB02214DF256
:102890001E6000F0C5FB67214DF21F6000F0C0FB19
:1028A00002214DF2206000F0BBFB84214DF221603B
:1028B00000F0B6FB02214DF2226000F0B1FBA42132
:1028C0004DF2236000F0ACFB02214DF2246000F0D9
:1028D000A7FBB7214DF2256000F0A2FB02214DF2CB
:1028E000266000F09DFBCF214DF2276000F098FBA1
:1028F00002214DF2286000F093FBDE214DF22960A9
:1029000000F08EFB02214DF22A6000F089FBF221DB
:102910004DF22B6000F084FB02214DF22C6000F0A0
:102920007FFBFE214DF22D6000F07AFB03214DF27A
:102930002E6000F075FB10214DF22F6000F070FB4F
:1029400003214DF2306000F06BFB33214DF231601A
:1029500000F066FB03214DF2326000F061FB6D2157
:102960004DF2336000F05CFB5521484600F058FB07
:10297000AA21404600F054FB5221184600F050FBBB
:102980000821284600F04CFB0021304600F048FBAF
:10299000CC21584600F044FB00214BF2011000F01E
:1029A0003FFB0521504600F03BFB70214FF43740C0
:1029B00000F036FB70214BF2017000F031FB012179
:1029C0004FF4384000F02CFB03214BF6010000F0DF
:1029D00027FB03214BF6020000F022FB03214BF6FC
:1029E000030000F01DFB02214FF43C4000F018FBF7
:1029F00000214BF6014000F013FB00214BF6024092
:102A000000F00EFBD0214FF4494000F009FB0221F9
:102A10004CF6011000F004FB50214CF6021000F0BF
:102A2000FFFA50214CF6031000F0FAFA50214CF650
:102A3000041000F0F5FA00214FF4545000F0F0FAC1
:102A400055214FF4685000F0EBFA4FF48850208085
:102A5000782001F0E3F94FF4245020807BE05845C2
:102A600079D1E22020801D202880022028800420A7
:102A70002880642001F0D2F9E02020800120288005
:102A80000A2001F0B1F9E0202080032028800C20EA
:102A900001F0AAF9012020800A2001F0A5F9E62022
:102AA00020802F202880FF2028802880B0202080B0
:102AB00020202880002028800320288040F21F301A
:102AC00028800120288040F2DF1028800020288004
:102AD000B42020800420288040F21F40288000205D
:102AE00028802E2028800020288028802880288088
:102AF000B6202080022028804FF403702880002018
:102B000028801720288015202880002028802880F1
:102B1000F02020800320288029202080D0202080C1
:102B200000202880BE20208005202880FE202880CC
:102B3000012028800020288028802880B82020803C
:102B40000320288001202880BA20208001202880AE
:102B5000642000F019F80020FEF718F8044901205D
:102B6000C1F880013846FDF7F9FF1FB0BDE8F08FCE
:102B700000802142034808B50088ADF80000BDF888
:102B8000000008BD0008006C0C4A10B5BE21118081
:102B9000941C0521218002F030FA4FF06632084B78
:102BA00002F03EFA02F0FCF9208001202080FF2094
:102BB000208000202080208010BD0000FE07006CD7
:102BC0006666044070B54E4D00232946AA7989886F
:102BD00041F66314012A01D01AB11BE0A14202D1CF
:102BE00018E0A14216D1082814D2DFE800F004064C
:102BF000080A0C0E101206200CE007200AE0042040
:102C000008E0052006E0012004E0002002E00320A7
:102C100000E00220082812D2DFE800F011040608C4
:102C20000A0C0E1080230AE0402308E0C02306E0CF
:102C3000202304E0602302E0A02300E0E02345F22B
:102C40001056B14202D14FF4585000E03620A1F5A1
:102C50001342413A03D0A1F5EE42893A01D143F043
:102C60000803194600F0DCF9AA88A2420AD09806A7
:102C70002888698802D5884202D303E0884201D9B6
:102C8000298068801F48811CB2426A89028021D154
:102C900000230B80531C038000230B80931C0380B4
:102CA0002B885B1E1C0A0C80D21C0280DAB20A80C0
:102CB000AA89028000230B80531C038000230B8011
:102CC000931C03806B885B1E1C0A0C80D21C028044
:102CD000D8B212E000220A800A802A88521E130A03
:102CE0000B80D2B20A80AA89028000200880088066
:102CF0006888401E020A0A80C0B2088070BD0000C9
:102D000088010020FE07006C2DE9F043DFF8A49055
:102D1000294F4A46B9F804C09389050A0C0ABE1C1B
:102D20005289ACF5C858B8F163080ED0ACF5A0488C
:102D3000B8F5A2683A80358033D0C0B230803B808D
:102D40003480C8B23080BDE8F083DFF868C099F8FD
:102D50000680BCF800C0B8F1000F16D03A8035806C
:102D6000C0B23080ACF1010C4FEA1C2030800CF076
:102D7000FF0030803B803480C8B23080B9F8020058
:102D8000401E010A3180C0B2DCE7ACEB0000401EFF
:102D900080B23A80002232803280020A3280C0B291
:102DA000E7E7521C3A80C0B230803B8034805B1C25
:102DB0003B80C6E788010020FE07006C2DE9FF4F2D
:102DC00083185B1E1FFA83FA039B464E0B44A3F144
:102DD00001083346B788DFF810E19C890D0A5B894A
:102DE000A7F5C85C1FFA88F90EF1020BBCF1630C61
:102DF00029D196F806C0BCF1010F24D036881FFAFD
:102E000088F7B61A301A86B2AEF80030330A584640
:102E1000ABF80030F3B2ABF800303244521E130A64
:102E2000ABF80030D2B2ABF80020AEF80040ABF8FF
:102E30000050C9B2ABF80010390AABF80010F9B273
:102E40000180BDE8FF8F0244521EC2F30728039A97
:102E5000A7F5A04C0A44521E060AC2F30722BCF58D
:102E6000A26C7746AEF8003017D0ABF80060C0B265
:102E7000ABF80000ABF800800AF0FF00ABF80000F0
:102E80003C80ABF80050C8B2ABF80000ABF80020B3
:102E900009F0FF00ABF80000D3E7DC46ABF80060B8
:102EA0005E1C3E80C0B2ABF80000981C3880ABF8C6
:102EB0000080DB1C3B800AF0FF00ABF800003C8088
:102EC000ABF80050601C3880C8B2ACF80000A01C01
:102ED0003880ACF80020E41C3C8009F0FF00ACF81E
:102EE0000000AEE788010020FE07006C2DE9F84FD6
:102EF00082461F460C468B46580700D0012000EB47
:102F0000D70079084843203AC0B202F0FF090026F2
:102F1000009041E00C2F10D0102F12D0182F3ED16E
:102F2000204909EBC90001EB80004FF00008855DE6
:102F300028060AD51C4802880BE009EB49001B490A
:102F4000F1E71B4901EB0910EFE70A9828B9164889
:102F5000428821465046FDF775FE6806050E154865
:102F6000641CA4B24088A04219D9A4EB0B00B8425B
:102F700009D10AF101001FFA80FA0E485C46018867
:102F800051450CD906E008F1010000F0FF08B8F146
:102F9000080FCDD3761CF6B200988642BAD3BDE8AE
:102FA000F88F0000805C00082E0000201C520008F2
:102FB00090560008880100202DE9F84F044600F0E3
:102FC000FF0810190D46DDE90A761FFA80FA581934
:102FD0001FFA80F94FF0000B11E0544502D3E819B5
:102FE000444685B24D450FD23B4629462046CDF892
:102FF00000B0FFF77BFF04EB570084B2761C3278F9
:10300000A2F120005E28E8D9BDE8F88F0248034904
:10301000008908807047000088010020FE07006CCE
:10302000024A1080901C018070470000FE07006C6F
:10303000FEE7704730B50F23C27801780125F2B161
:10304000144A126801F1E02102F4E062C2F5E06284
:10305000120AC2F10404D3404278A24084781C4092
:103060001443220181F80024007800F01F018D40F4
:103070004009800000F1E020C0F8005130BD01F0AF
:103080001F0085404809800000F1E020C0F8805111
:1030900030BD00000CED00E0F8B50024012140F245
:1030A0003D1000F029FA4FF48075ADF80050482625
:1030B0008DF803600320424F8DF8020069463846C0
:1030C000FDF77AFC29463846FDF7F7FC1820ADF8E5
:1030D00000003C4F10258DF8035069463846FDF737
:1030E0006BFC18213846FDF7E8FCFF20ADF8000026
:1030F0008DF8036069463448FDF75EFC4020ADF86A
:103100000000324E8DF8035069463046FDF754FCFE
:1031100040213046FDF7D1FC4FF44046ADF8006049
:103120008DF803502A4D69462846FDF745FC314687
:103130002846FDF7C2FC01212648FDF78BFC00F074
:1031400031FA8021122000F063FB08B10120F8BDA4
:10315000322000F049FE1C2000F0B6FA4FF6FF7551
:1031600005EA00261D2000F0AFFA40EA0601A1F5AD
:10317000FE40A23803D018A0FDF778F8E6E70A2051
:1031800000F0A2FA05EA00250B2000F09DFA40EAC3
:103190000501A1F5EE40213804D012A0FDF766F834
:1031A0000220F8BD124D05EB4400417815F81400DB
:1031B00000F02EFB641CA4B2412CF4D30020F8BD17
:1031C00000080140000C01400010014000140140C3
:1031D00000200140000230004D49443A25640D0AA8
:1031E000000000004849443A25640D0A0000000030
:1031F000DC69000810B5062847D2DFE800F00306B6
:103200001D27313CFF21132009E0FD21132000F090
:10321000FFFA5A21012000F0FBFA5C2129E000F0BE
:10322000F7FA65210E2000F0F3FA00212D2000F0BE
:10323000EFFA00212E2024E0FD21132000F0E8FA0F
:103240005821012000F0E4FA602112E0FD21132052
:1032500000F0DEFA8421012000F0DAFA4C2108E0C7
:10326000FD21132000F0D4FA9621012000F0D0FABD
:1032700040210220D3E7FF21132000F0C9FAE52105
:103280000E20BDE8104000F0C3BA10BD2DE9F04794
:103290000C4605464AB3C5F5207000EBD070C0F36C
:1032A0004F07C4F5F07000EBD070C0F34F06062155
:1032B000122000F0ADFA2321172000F0A9FAA02176
:1032C000182000F0A5FA0721192000F0A1FAF0213A
:1032D0001A2000F09DFA0021322000F099FAA02176
:1032E000292000F095FAF02128E0C5F5A07000EB48
:1032F000D070C0F34F07C4F1F00000EBD070C0F302
:103300004F064621122000F083FA3F21172000F0DB
:103310007FFA5021182000F07BFA0321192000F0D9
:1033200077FA78211A2000F073FA0021322000F099
:103330006FFA5021292000F06BFA78212C2000F040
:1033400067FA172000F0C0F900EB9700C1B2172010
:1033500000F05EFAC5F387018A46182000F058FA9B
:10336000192000F0B1F900EB5600C1B2192000F0AD
:103370004FFAC4F3470189461A2000F049FA322077
:1033800000F0A2F98046F007400E07F0030104F0B8
:10339000010640EA011040EA860105F003042143DA
:1033A00041EA0801322000F033FA5146292000F0AA
:1033B0002FFA49462C2000F02BFA2A2000F084F93D
:1033C00044EA080444EA8601BDE8F0472A2000F0F8
:1033D0001FBA00002DE9F05FDFF8D0B09BF80000C5
:1033E000002861D00420FFF7EDFB314C4FF4A075AD
:1033F000F02360882288F03800EBD070C0F34F01D2
:10340000A2F5A07202EBD270C0F34F002A46FFF77C
:10341000D5FCA088A0F5C851633910D120886188F7
:10342000A0F5A070F03901EBD17100EBD070C1F3C1
:103430004F01C0F34F002B46F022FFF7BFFCFFF710
:10344000E5FD1C484FF0000AC0F8B8A11A4E102143
:103450003160371F396031600122C0F8B82139600E
:10346000A946164DDFF8588054464FF6FF730020EA
:103470003160AA68396003EA02223160D5F808C0D9
:1034800039600CF0FF0C4CEA020CA8F800C0401C9C
:103490004845EDD3641CF02CE9D38BF800A0BDE8BF
:1034A000F05F0020FFF78EBBBDE8F09F32000020E8
:1034B0008801002000002442140C0140001001404B
:1034C0000008006C70470000044A0029516901D0CF
:1034D000014300E081435161704700000010024049
:1034E000044A0029D16901D0014300E08143D16140
:1034F0007047000000100240044A0029916901D081
:10350000014300E0814391617047000000100240D8
:1035100030B5204A5168204B11F00C0103D004292A
:1035200001D0082901D0036012E05168536801F40A
:1035300070114FF0020413F4803F04EB914102D06C
:1035400053689B0301D5154B00E0134B59430160B1
:1035500051680F2303EA1111114B5C5C0168E140D3
:1035600041605468072505EA14241C5D21FA04F41F
:103570008460546805EAD4241B5DD940C160526858
:10358000032303EA9232064B1B1F9A5CB1FBF2F154
:10359000016130BD0010024000127A0000093D00B8
:1035A0004800002038B501214FF49070FFF7A4FFC8
:1035B0004FF40055ADF8005048208DF8030003206B
:1035C000114C8DF8020069462046FDF7F5F92946B1
:1035D0002046FDF772FA0820ADF8000010200B4DD0
:1035E0008DF8030069462846FDF7E6F908212846CC
:1035F000FDF763FA606820F470006060606840F472
:103600004010606038BD00000020014000140140FF
:1036100070B5322000F002FC0C4D0120C5F8B40159
:103620000B4EC6F88C01322005F5DA7506F5C67624
:1036300000F0F4FB00243460322000F0EFFB2C603B
:10364000BDE87040322000F0E9BB000000002442D9
:10365000008022422DE9F047184F0024786820F4BA
:1036600070007860786840F400007860DFF850906F
:10367000144E08254FF00108A246322000F0CEFB80
:10368000C6F88C816006040ED9F8340108B1641CB8
:10369000E4B2322000F0C2FBC6F88CA16D1E15F01A
:1036A000FF05EAD1786820F470007860786840F40B
:1036B000401078602046BDE8F087000000200140FF
:1036C000000024420080224210B5044600F022F897
:1036D000422000F055F8642000F0A0FB204600F0E6
:1036E0004FF8642000F09AFB00F02EF8642000F000
:1036F00095FB00F00FF8432000F042F8642000F042
:103700008DFBFFF7A7FF0446FFF782FF00F01CF8D0
:10371000204610BD70B50A4E0120C6F8B401094D0F
:10372000C5F88C01322005F5C67506F5DA7600F08D
:1037300075FB00243460322000F070FB2C6070BDFB
:10374000000024420080224270B50B4C0020C4F8D7
:10375000B401322004F5DA7400F060FB074801255B
:10376000C0F88C51322000F059FB2560BDE8704054
:10377000322000F053BB00000000244200802242AF
:103780002DE9F04700241F4E1F4F0546A0464FF07D
:103790000109280601D5484600E04046C6F8B401B4
:1037A0006806050E322000F039FBC7F88C913220F4
:1037B00000F034FBC7F88C81641CE4B2082CE8D319
:1037C000124C606820F470006060606840F4000093
:1037D0006060322000F022FBC7F88C91322000F0AC
:1037E0001DFBD6F8340100B10120C7F88C81616857
:1037F00021F470016160616841F440116160BDE8CD
:10380000F087000000002442008022420020014096
:1038100070B50D4606460024FFF77CFF4220FFF7F7
:10382000AFFF00B10124642000F0F8FA3046FFF742
:10383000A7FF00B10124642000F0F0FA2846FFF74A
:103840009FFF00B10124FFF77FFF204670BD704746
:103850000CB50022264800920192016841F48031A3
:1038600001604FF4A063016801F4003101910099F7
:10387000491C0091019911B900999942F3D101684D
:10388000890333D5012101911A490A6842F01002D7
:103890000A600A6822F003020A600A6842F0020223
:1038A0000A604168416041684160416841F480615B
:1038B0004160416821F47C114160416841F4E811A4
:1038C0004160016841F08071016001688901FCD5A7
:1038D000416821F003014160416841F0020141600B
:1038E0004168C1F381010229FAD10CBD01920CBDDE
:1038F00000100240002002404FF0E0210428086937
:1039000003D020F004000861704740F00400FAE79B
:10391000704700000F4810B5016841F001010160D7
:1039200041680D4A1140416001680C4A1140016034
:10393000016821F480210160416821F4FE014160A9
:103940004FF41F018160FFF783FF05494FF00060CE
:10395000086010BD001002400000FFF8FFFFF6FEF7
:1039600008ED00E010B5074C0121204600F0A9F851
:10397000002805D02046BDE81040012100F089B89C
:1039800010BD00000004004010B50C4C0121204681
:1039900000F097F801280AD10948016988470021F9
:1039A000204600F0AAF86421204600F0A4F8204642
:1039B000BDE81040012100F06CB800000008004094
:1039C0009400002070B51F4C1F4D2078000633D4A2
:1039D0000121284600F075F838B12178480604D551
:1039E000C843800612D0491C21700221284600F0ED
:1039F00068F808B3217848060FD541F080002070A0
:103A0000284600F053F86080002112E041F0800069
:103A100020704FF6FF706080E7E700202070608024
:103A20000146284600F069F82078022140F0400065
:103A30002070284600F059F82846BDE87040032160
:103A400000F027B834000020000C004070B5094D8C
:103A50000121284600F035F830B1074C07A0617805
:103A6000FCF704FC002060702846BDE8704001218E
:103A700000F00FB800100040340000206672616D45
:103A8000653A25646670730D0A000000C94301821F
:103A90007047C943018270470029018802D041F074
:103AA000010101E021F0010101807047808E704723
:103AB000808C704702460020128A0A4200D0012002
:103AC000704702460020138A92890B4202EA0102E3
:103AD00002D0002A00D001207047002A828901D03C
:103AE0000A4300E08A4382817047028C22F002027E
:103AF0000A430284704781857047818470470000C3
:103B000030B502881B4C1C4DA0420DD0A8420BD0F2
:103B1000B0F1804F08D0194B984205D0184B98420D
:103B200002D0184B984203D122F070034A881A43FE
:103B3000154B984206D0154B984203D022F440739F
:103B4000CA881A4302808A8882850A880285A04230
:103B50000AD0A84208D00E4A904205D00D4A9042A1
:103B600002D00D4A904201D1097A01860121818259
:103B700030BD0000002C0140003401400004004032
:103B800000080040000C00400010004000140040FD
:103B90000040014000440140004801407FB50D460F
:103BA000044601210420FFF79BFCADF804400020EF
:103BB000ADF80050104CADF80600ADF802006946B3
:103BC0002046FFF79DFF012241212046FFF785FF98
:103BD0001E218DF80C1003218DF80D108DF80E109C
:103BE00001208DF80F0003A8FFF724FA01212046D9
:103BF000FFF752FF7FBD00000008004070B5154C74
:103C000040F22551204600F035F800280ED020461D
:103C100000F0BEF8104AC1B21088030406D4440470
:103C20004FF0000306D50A2901D0138070BD40F47F
:103C300000400DE00D2909D0C0F30D04074D401CD4
:103C400080B229551080C728EFD870BD40F480405D
:103C5000108070BD003801403C000020960100201B
:103C60000029818902D041F4005101E021F4005182
:103C70008181704770B501F01F0501260024C1F352
:103C8000421306FA05F2012B0FD0022B0FD0838AC4
:103C90004FEA11210088134206FA01F600EA0600F5
:103CA00001D000B10124204670BD8389F0E7038A6A
:103CB000EEE710B5C1F3421301F01F040121A1404A
:103CC000012B07D0022B07D01430002A026805D040
:103CD0000A4304E00C30F8E71030F6E78A4302604C
:103CE00010BD000030B50446008A85B00D464CF684
:103CF000FF710840E98801432182A0894EF6F31143
:103D00000840A9882A8911436A8902431143A18185
:103D1000A08A4FF6FF410840A9890143A182684665
:103D2000FFF7F6FB1948844201D1039800E002989E
:103D3000A189090400EBC00101EB0010296801D53D
:103D4000490000E08900B0FBF1F06422B0FBF2F121
:103D500009010B096FF018056B4300EB8300A38981
:103D60001D044FF0320306D503EBC000B0FBF2F0A8
:103D700000F0070005E003EB0010B0FBF2F000F0EC
:103D80000F000843208105B030BD0000003801401D
:103D90008088C0F308007047FEE730380A2801D257
:103DA00001207047002070477047000010B56FF089
:103DB0000400FFF7A1FD094809490068B0FBF1F0D4
:103DC0000849C0B200EB40020870C2EBC0104FF6C9
:103DD000FF7202EAC000488010BD000018000020F9
:103DE00000127A00380000200B49498848434FF000
:103DF000E021486100238B61086940F001000861FF
:103E00000869C20701D0C003FAD5086920F0010093
:103E100008618B6170470000380000200B49097869
:103E200048434FF0E021486100238B61086940F06E
:103E3000010008610869C20701D0C003FAD508690A
:103E400020F0010008618B617047000038000020FD
:103E500004490A885206FCD5024AC1B2121D1180DB
:103E600070470000003801401CB500252C46FFF7C4
:103E70009DFF4FF4E13000F0E3F8FCF721FEFCF782
:103E80005BFF4A49A8461026A1F8008048A0CDE96A
:103E900000603346C82232211E20FFF78DF84FF60E
:103EA000FF77FFF7F9F8B0B146A0CDE90060102325
:103EB000C822D2211E20FFF77FF8C820FFF794FF09
:103EC000F623EF22D2211E200097FCF711FFC82015
:103ED000FFF78AFFE5E740A0CDE900601023C82284
:103EE000D2211E20FFF768F84FF485790020FCF7F7
:103EF000F9FD022806D06D1CEDB2642D13D0C82D3B
:103F00001BD022E00122F0214FF4A070FFF7BEF990
:103F10003849C1F8BC81FCF735FC4FF48777364D42
:103F20004FF4917815E035A0CDE900601023D2223E
:103F3000E6211E20FFF740F807E04B46D222E6219B
:103F40001E200097FCF7D4FE00250520FFF74CFF4C
:103F5000CCE72FA0CDE900601023D222FA211E2049
:103F6000FFF72AF831A0CDE900601023D2223946AC
:103F70001E20FFF721F855F824001023CDE900603A
:103F8000D22241461E20FFF717F80020FCF7AAFDB9
:103F900048B1012807D1641CE4B2052C00D90024E3
:103FA0002046FFF727F9FFF715FAD2E72E00002089
:103FB00077643237313127732063616D6572612018
:103FC0006578700063616D65726120696E69742047
:103FD0006572726F7221210063616D657261206983
:103FE0006E697420737563636573732020202020CD
:103FF0002020000000002442000000207072657341
:1040000073206B65793120746F2073746172740052
:104010007072657373206B65793020746F206368EC
:10402000616E6765206D6F64650000006E6F7720BC
:104030006D6F6465206973200000000000687047A0
:1040400070B5054686B0012144F20400FFF754FA2A
:104050004FF40070ADF8100003248DF812401820C2
:104060001D4E8DF8130004A93046FCF7A5FC301551
:10407000ADF8100004208DF8130004A93046FCF7B9
:104080009BFC25208DF814008DF815408DF8164006
:1040900001208DF8170005A8FEF7CCFF0020ADF831
:1040A0000400ADF80600ADF80800ADF80C000C20D7
:1040B0000A4CADF80A00009569462046FFF712FE4B
:1040C000012240F225512046FFF7F3FD0121204651
:1040D000FFF7C6FD06B070BD000801400038014082
:1040E00070B594B0064613AB11AA694600F0D8F932
:1040F000002824D18DF840001D4C042514E02068D0
:1041000005EBC10113AB405812AA08A900F0C8F989
:10411000002814D1694608A800F0EAFB88B19DF890
:104120004000401C8DF84000207D9DF840108842E2
:10413000E5D8207D9DF8401088420ED1042014B0AF
:1041400070BD9DF848009DF84410884201D90220B6
:10415000F5E79DF84000A075EBE710A9304600F0A8
:1041600053FA0028EBD19DF8400060750020E6E787
:10417000940000202DE9F0417E4E9AB0B57D307D4F
:10418000A8427CD90421306801EBC50119AB405825
:1041900018AA10A900F084F910A977A0FCF766F816
:1041A00000240DF1180832E0308B0121A1400842B3
:1041B00017D0222172A0FCF759F8204600F08CFAA3
:1041C000811970A02431FCF751F822216CA0FCF772
:1041D0004DF8204600F080FA3044243048F824009E
:1041E0000BE0204600F078FA3044416A48F8241089
:1041F000F07D00B364A0FCF739F89DF86000401E24
:10420000844202D062A0FCF731F8641CE4B29DF84D
:1042100060008442C8D35FA0FCF728F800F0A6FA3B
:10422000707D0B2814D2DFE800F0080D31384048CB
:10423000525E6B78890058A0DDE7306850F8350091
:10424000804704E0306850F83510069888470746E4
:1042500000F054FA9DF8640001286ED04FA0FCF7DE
:1042600005F896F8EC0000280DD0D6F8F0000A21E9
:10427000B0FBF1F201FB1202B0FBF1F100E002E051
:1042800047A0FBF7F3FF1AB0BDE8F081306850F8A3
:104290003520DDE906019047D9E7306806AC50F8D3
:1042A000353094E807009847D1E7306806AF50F8FA
:1042B000354097E80F00A047C9E70A98009030689A
:1042C00006AF50F8354097E80F00A047BFE7DDE99B
:1042D0000A01CDE90001306806AF50F8354097E893
:1042E0000F00A047B3E70AAB06AF93E807008DE8DD
:1042F0000700306850F8354097E80F00A047A6E760
:104300000AAC06AF94E80F008DE80F00306850F853
:10431000354097E80F00A04799E70BAC06AF94E84B
:104320000F0001AC84E80F000A980090306850F844
:10433000354097E80F00A04789E711E00CAC06AFC5
:1043400094E80F0002AC84E80F00DDE90A01CDE932
:104350000001306850F8354097E80F00A04776E735
:10436000F07D394618B116A0FBF780FF79E717A05A
:10437000FAE70000940000200D0A257328000000D1
:104380002563000025730000305825580000000008
:104390002C00000029000000256C75003B0D0A0070
:1043A00046756E6374696F6E2052756E2054696D28
:1043B000653A25642E2531646D730D0A00000000F6
:1043C0003D305825583B0D0A000000003D256C7516
:1043D0003B0D0A00F0B500252E462F462C460378EB
:1043E0002C2B03D0292B04D01BB103E014B90126D8
:1043F00000E05CB317B1222B26D026E0A3F1300CED
:10440000BCF1090F15D9A3F1610CBCF1050F10D94E
:10441000A3F1410CBCF1050F0BD9582B09D0782B17
:1044200007D0222B0CD0202B1ED02C2B1CD0FF27EA
:104430000CE05EB9612B00D3203B01F8013B13E097
:1044400026B901273C460FE0002426B10020087061
:1044500017702846F0BD3CB15C2B02D16D1CEDB24B
:10446000401C037801F8013B6D1CEDB2401CB6E71F
:1044700030B5002515700AE001F8014B1478401C96
:10448000641CE4B214709C4201D3012030BD047856
:10449000202C01D0002CEFD10D70002030BD000089
:1044A0002DE9FF4F002482B089469846A246274650
:1044B000012526462246EB46029915E0202810D019
:1044C00002F07F03052B0CD202B9802202F07F0399
:1044D000042B01D12A280AD1521C0BF80300D2B2B6
:1044E00001E0852A04D0491C08780028E6D16AB189
:1044F00002F07F0200200BF8020041A1584600F0B4
:10450000F7F938B1012188F8001000224FF00008B7
:10451000029B15E0002088F80000F6E708F1010092
:1045200000F0FF0813F8010F202801D02A2807D136
:10453000184600F085F9282802D02A2800D0C24663
:104540001878282801D00028E8D10299BAF1000F84
:1045500001D05144491C4FF000084346087888B107
:10456000282804D0292806D0222810D011E083B9A9
:10457000641CE4B20DE063B924B1641E14F0FF04BE
:1045800002D00DE04FF00108012F27D02FE04BB1F2
:1045900000234CB12C280CD0202816D0282814D069
:1045A0005AB110E00123F4E7202815D009F8010BD7
:1045B00012E00125521CD2B207E0052E03D20BF8FF
:1045C0000600761CF6B26D1CEDB2012C04D1022D52
:1045D00002D103257F1CFFB2491CBFE700200BF866
:1045E000060007A1684600F083F900B90027049887
:1045F0000770002089F8000006B04046BDE8F08F43
:10460000766F6964000000002DE9F04300248946BC
:10461000304DB5B0214622466B18491CC9B29A7676
:104620000A29F9D302E010F8011F99B1017828296D
:10463000F9D1461C4FF0010833AA69463046FFF70E
:10464000C9FE06449DF8CC0040B1012824D0FF28C3
:1046500036D10BE0012035B0BDE8F0839DF80000B5
:1046600070B334A9684600F0F3F808B10220F2E70D
:10467000204600F031F8284434994162298B08FA29
:1046800004F081432983042029198876641CE4B24C
:104690000A2C15D90320DEE7684600F03EF9471CD6
:1046A000204600F019F841196846243100F02CF931
:1046B000298B08FA04F00143281929838776E5E756
:1046C0003078292801D00028B6D189F80040002090
:1046D000C1E7000094000020024610B5002001460A
:1046E000054B05E05C18491CA47EC9B22044C0B249
:1046F0009142F7D310BD00009400002070B50B4D1F
:1047000001212846FFF7D6F9094C012806D1D4F833
:10471000F0004FF6FF710844C4F8F0002846FFF798
:10472000C7F954F8F01F0844206070BD000800402D
:104730009400002000EBC00101EB00104FF0FF31AE
:1047400001EB800010B581B24FF47A70FFF726FAC2
:1047500001490120C87510BD9400002003460120C6
:1047600000E05843491EC9B2FBD2704710B5094C4E
:1047700001212046FFF78AF94FF6FF712046FFF727
:10478000BAF900212046FFF7B8F903490020C1F823
:10479000F00010BD00080040940000202DE9F04119
:1047A000164E3088010426D51549C0B2154F002594
:1047B0000D54B9681248884704000FD0104800F023
:1047C000B5F8012801D0040014D0012C09D0022C26
:1047D00009D0032C09D0042C0CD108E0F8688047DC
:1047E00008E009A004E00BA002E00DA000E00FA08B
:1047F000FBF73CFD3580BDE8F08100003C00002067
:104800009601002094000020BAAFCAFDB4EDCEF3AB
:10481000210D0A00B2CECAFDB4EDCEF3210D0A007F
:10482000B2CECAFDCCABB6E0210D0A00CEB4D5D2D3
:10483000B5BDC6A5C5E4B5C4BAAFCAFD210D0A0011
:1048400010F8011F202901D10028F9D1C8B2704702
:104850002DE9F0410024884605460A260C600178BF
:10486000A1F13002092A0DD9113A052A0AD958298D
:1048700005D011F0FF0F0CD00120BDE8F081012C14
:1048800002D0F9E7412900D31026641CE4B2401C91
:10489000E5E7102E01D084B112E0032C01D20220F2
:1048A000EBE72878302802D16878582801D0032017
:1048B000E3E7A41EE4B2AD1C01E00420DDE70CB187
:1048C000641EE4B22F783846303F092F01D9A0F199
:1048D000370721463046FFF741FFD8F8001007FBA5
:1048E0000011C8F8001015F8010F0028E7D1C4E73F
:1048F00002780B789A4201D00120704712B1401C17
:10490000491CF5E70020704702780A700278002AF7
:1049100002D0401C491CF7E77047002102781AB109
:10492000491CC9B2401CF9E708467047F0B58DB084
:1049300004461E2308AA6946FFF79AFD099000283D
:1049400072D19DF82000271800253E4C8DF820508C
:104950009DF8200054F820106846FFF7C9FF38B1D1
:104960009DF82000401CC0B28DF820000728EFD32E
:104970009DF820000426344C072855D2DFE800F0CB
:104980000404395A605F5E0030A0FBF76FFC30A072
:10499000FBF76CFC3EA0FBF769FC4DA0FBF766FC47
:1049A0005BA0FBF763FC6AA0FBF760FC78A0FBF759
:1049B0005DFC85A0FBF75AFC8AA0FBF757FC8FA093
:1049C000FBF754FC93A0FBF751FC98A0FBF74EFCBF
:1049D0009DA0FBF74BFCA3A0FBF748FCAFA0FBF7A7
:1049E00045FCBCA0FBF742FCC7A0FBF73FFCD3A0F3
:1049F0001BE016A0FBF73AFCE0A0FBF737FC8DF8B4
:104A000020500BE0216806EBC0000958EBA0FBF733
:104A10002DFC9DF82000401C8DF82000217D9DF884
:104A200020008142EED84EE24FE2FBF71FFC00204F
:104A30000DB0F0BD05A0FBF719FCC3E124E204E2D0
:104A4000E3E1000058000020940000200D0A00005F
:104A50002D2D2D2D2D2D2D2D2D2D2D2D2D2D2D2D86
:104A60002D2D2D2D2D2D2D2D55534D41525420568C
:104A7000332E312D2D2D2D2D2D2D2D2D2D2D2D2D5B
:104A80002D2D2D2D2D2D2D2D2D2D2D200D0A000000
:104A90002020202055534D415254CAC7D3C9414C00
:104AA00049454E54454BBFAAB7A2B5C4D2BBB8F6D0
:104AB000C1E9C7C9B5C4B4AEBFDAB5F7CAD4BBA59E
:104AC000BDBBD7E9BCFE2CCDA8B9FD200D0A000066
:104AD000CBFC2CC4E3BFC9D2D4CDA8B9FDB4AEBFC2
:104AE000DAD6FACAD6B5F7D3C3B3CCD0F2C0EFC387
:104AF000E6B5C4C8CEBACEBAAFCAFD2CB2A2D6B4FF
:104B0000D0D02ED2F2B4CB2CC4E3BFC90D0A000022
:104B1000D2D4CBE6D2E2B8FCB8C4BAAFCAFDB5C4B1
:104B2000CAE4C8EBB2CECAFD28D6A7B3D6CAFDD711
:104B3000D62831302F3136BDF8D6C629A1A2D7D616
:104B4000B7FBB4AEA1A2BAAFCAFDC8EB0D0A000014
:104B5000BFDAB5D8D6B7B5C8D7F7CEAAB2CECAFD98
:104B6000292CB5A5B8F6BAAFCAFDD7EEB6E0D6A7E0
:104B7000B3D63130B8F6CAE4C8EBB2CECAFD2CB217
:104B8000A2D6A7B3D6BAAFCAFDB7B5200D0A0000AA
:104B9000BBD8D6B5CFD4CABE2ED0C2D4F6B2CECAF8
:104BA000FDCFD4CABEBDF8D6C6C9E8D6C3B9A6C41F
:104BB000DC2CD0C2D4F6BDF8D6C6D7AABBBBB9A6EA
:104BC000C4DC2E0D0A000000BCBCCAF5D6A7B3D6C3
:104BD0003A7777772E6F70656E6564762E636F6DAA
:104BE0000D0A000055534D415254D3D037B8F6CF7B
:104BF000B5CDB3C3FCC1EE3A0D0A00003F3A202008
:104C000020202020BBF1C8A1B0EFD6FAD0C5CFA29A
:104C10000D0A000068656C703A202020BBF1C8A125
:104C2000B0EFD6FAD0C5CFA20D0A00006C6973743C
:104C30003A202020BFC9D3C3B5C4BAAFCAFDC1D082
:104C4000B1ED0D0A0A00000069643A2020202020FE
:104C5000BFC9D3C3BAAFCAFDB5C44944C1D0B1EDD1
:104C60000D0A0A006865783A20202020B2CECAFDDD
:104C70003136BDF8D6C6CFD4CABE2CBAF3B8FABF07
:104C8000D5B8F12BCAFDD7D6BCB4D6B4D0D0BDF8B8
:104C9000D6C6D7AABBBB0D0A0A0000006465633AFA
:104CA00020202020B2CECAFD3130BDF8D6C6CFD4E8
:104CB000CABE2CBAF3B8FABFD5B8F12BCAFDD7D605
:104CC000BCB4D6B4D0D0BDF8D6C6D7AABBBB0D0AEB
:104CD0000A00000072756E74696D653A312CBFAAC6
:104CE000C6F4BAAFCAFDD4CBD0D0BCC6CAB13B3033
:104CF0002CB9D8B1D5BAAFCAFDD4CBD0D0BCC6CAB6
:104D0000B13B0D0A0A000000C7EBB0B4D5D5B3CC57
:104D1000D0F2B1E0D0B4B8F1CABDCAE4C8EBBAAFC2
:104D2000CAFDC3FBBCB0B2CECAFDB2A2D2D4BBD8BE
:104D3000B3B5BCFCBDE1CAF82E0D0A002D2D2D2DFA
:104D40002D2D2D2D2D2D2D2D2D2D2D2D2D2D2D2D93
:104D50002D2D2D2D2D2D414C49454E54454B2D2D9E
:104D60002D2D2D2D2D2D2D2D2D2D2D2D2D2D2D2D73
:104D70002D2D2D2D2D2D2D200D0A00002D2D2D2D0D
:104D80002D2D2D2D2D2D2D2D2D2D2D2D2D2D2D2D53
:104D90002D2D2D2D2DBAAFCAFDC7E5B5A52D2D2D75
:104DA0002D2D2D2D2D2D2D2D2D2D2D2D2D2D2D2D33
:104DB0002D2D2D2D2D2D2D2D200D0A0025730D0AA5
:104DC0000000000042A0FBF751FA8DF8205016E0D9
:104DD000216806EBC0000BAB08580AAA6946FFF72A
:104DE0005FFB9DF82010206850F83120694648A0EC
:104DF000FBF73CFA9DF82000401C8DF82000217D37
:104E00009DF820008142E3D85DE0AFF2C030FBF7AF
:104E10002DFA08AA69463846FFF7DCFA9DF820000B
:104E2000002843D109A96846FFF712FD8DF820003C
:104E300010B104283AD102E03AA009991CE03CA044
:104E4000FBF714FA0120E0753DE038A0FBF70EFAFD
:104E500008AA69463846FFF7BDFA9DF8200028BB2E
:104E600009A96846FFF7F4FC8DF8200010B104286A
:104E70001CD104E033A00999FBF7F8F923E034A032
:104E8000FBF7F4F9E5751EE028A0FBF7EFF908AA97
:104E900069463846FFF79EFA9DF8200030B909A907
:104EA0006846FFF7D5FC8DF8200008B10220BFE569
:104EB000099810F0FF0084F8EC0001D029A000E070
:104EC0002FA0FBF7D3F919A0AFE50120B0E5000052
:104ED0002D2D2D2D2D2D2D2D2D2D2D2D2D2D2D2D02
:104EE0002D2D2D2D2D2D2D2D2DBAAFCAFD20494450
:104EF000202D2D2D2D2D2D2D2D2D2D2D2D2D2D2DEF
:104F00002D2D2D2D2D2D2D2D2D2D2D2D200D0A004E
:104F100025732069642069733A0D0A3058253038AA
:104F2000580D0A004845583A305825580D0A0000D7
:104F30003136BDF8D6C6B2CECAFDCFD4CABE210D19
:104F40000A0000004445433A256C750D0A00000034
:104F50003130BDF8D6C6B2CECAFDCFD4CABE210DFF
:104F60000A00000052756E2054696D652043616C23
:104F700063756C6174696F6E204F4E0D0A000000FE
:104F800052756E2054696D652043616C63756C6168
:104F900074696F6E204F46460D0A0000016070472D
:104FA0004FEA1153A3F58063D3F11E03A8BFD3F1D9
:104FB000200C08DB4FF0004242EAC12252EA505274
:104FC00032FA03F0704709420BD4102BC4BF002003
:104FD000704703F5787CBCF1FF3F05D04FF0FF3000
:104FE00070474FF00000704770B500F0C3F800BF85
:104FF0004992248000207047F0E7B0FA80F310FA5D
:1050000003F10AD0C3F11D0303F580634FEA415059
:105010004FEA035202EBD12170474FF00000704776
:10502000DFF848C170B51CEA111E1EBF1CEA13153B
:105030009EEA0C0F95EA0C0F00F06F8081EA0304E2
:1050400023EA4C134EEAD47E21EA4C1141F480113C
:1050500043F48013AE44A1FB024CA0FB0365AEF108
:105060007F7E361955EB0C05A1FB034C4CF1000378
:10507000A0FB021C16EB0C06654153F1000309422C
:1050800018BF46F0010613F4007F0BD14FEA03313D
:105090004FEA0530340341EA155140EA16506FF0EB
:1050A00003020AE04FEAC3214FEAC520F40241EAB5
:1050B000555140EA56506FF0020202EB2E4201EBCE
:1050C000025585EACE710AD05FEA440C18BF24F07D
:1050D000004450F1000041F1000120EAD47040F298
:1050E000FE7C624500D270BDA84214BF4FF08044E0
:1050F0004FF04044002E08BF0024BEF1806FA8BFCF
:10510000A1F1C041BDE8704080F282804FF0000004
:1051100001F1C04101F0004170479EEA0C0F0CEA1A
:10512000131518BF95EA0C0F06D04FF0000081EA66
:10513000030E0EF0004170BD00F01CF88900013E26
:1051400000F007B800F009B84FEA430C5FEA5C5C76
:1051500008D081EA030100F05BB84FEA410C5FEA36
:105160005C5CF6D14FF00000014970470000FF077A
:105170000000F87F0EF1020E2EF0030E5EF8046BB5
:10518000364205D4012A43EB030515F5001F12D85A
:10519000012841EB010C1CF5001F0CD80ED14FEA81
:1051A000D17C15F5001F0CEB4C0C0CF1020C08BF68
:1051B0004CEBD37C04E04FF0080C01E04FEAD37CC9
:1051C0000CEB4C0526FA05F606F00706B6F1040CC2
:1051D00006D20EEB860CBDE870404CF0010C604727
:1051E000DFE80CF0090B02024FF000414FF0000025
:1051F000A1F5002170BD19461046012851EB0104AC
:1052000018BFD4F5001484BF002001F0004170BD28
:105210000808A0F500114FEA3101704700000000B6
:105220000000000000000000000000003F400000FF
:10523000000000000000300040003000400000008E
:1052400009000BC03D000BC03D00090018C0244000
:105250007FE0224031800000180024C01B000D8038
:105260003240018003801C4027401C8007400040E2
:1052700010006000000000000000000000000000BE
:1052800000001F80204040200000402020401F8060
:1052900000000000090006001F8006000900000051
:1052A000040004003F8004000400000000100060BF
:1052B00000000000000000000400040004000400DE
:1052C000040000000000004000000000000000009A
:1052D000002001C006003800400000001F80204070
:1052E000204020401F800000000010403FC00040D0
:1052F0000000000018C02140224024401840000057
:1053000010802040244024401B80000002000D003B
:1053100011003FC0014000003C8024402440244054
:10532000238000001F80244024403440038000007C
:105330003000200027C03800200000001B802440DF
:10534000244024401B8000001C0022C02240224038
:105350001F80000000000000084000000000000066
:1053600000000000046000000000000000000400D5
:105370000A001100208040400900090009000900CE
:105380000900000000004040208011000A000400D5
:105390001800200023402400180000001F80204037
:1053A000274029401F400000004007C039000F007F
:1053B00001C0004020403FC0244024401B8000002A
:1053C0001F802040204020403080000020403FC00F
:1053D000204020401F80000020403FC024402E403D
:1053E00030C0000020403FC024402E0030000000AC
:1053F0000F001080204022403380020020403FC038
:10540000040004003FC02040204020403FC0204016
:10541000204000000060202020203FC0200020000D
:1054200020403FC024400B0030C0204020403FC0FF
:1054300020400040004000C03FC03C0003C03C0092
:105440003FC0000020403FC00C4023003FC0200070
:105450001F802040204020401F80000020403FC08F
:1054600024402400180000001F802140214020E03B
:105470001FA0000020403FC02440260019C000406B
:1054800018C02440244022403180000030002040D9
:105490003FC020403000000020003F80004000401E
:1054A0003F80200020003E0001C00700380020009F
:1054B000380007C03C0007C038000000204039C059
:1054C000060039C0204000002000384007C03840A6
:1054D00020000000304021C02640384020C000009D
:1054E000000000007FE0402040200000000070002D
:1054F0000C000380004000000000402040207FE0BE
:10550000000000000000200040002000000000001B
:10551000001000100010001000100010000000002B
:10552000400000000000000000000280054005402F
:1055300003C0004020003FC004400440038000003E
:105540000000038004400440064000000000038087
:10555000044024403FC00040000003800540054057
:1055600003400000000004401FC0244024402000ED
:10557000000002E0055005500650042020403FC0C6
:105580000440040003C000400000044027C0004065
:105590000000000000100010041027E000000000D0
:1055A00020403FC00140070004C00440204020408C
:1055B0003FC000400040000007C0040007C00400D6
:1055C00003C00000044007C00440040003C00040C2
:1055D000000003800440044003800000041007F032
:1055E0000450044003800000000003800440045085
:1055F00007F00010044007C002400400040000004F
:10560000000006400540054004C000000000040002
:105610001F80044000400000040007800040044058
:1056200007C000400400070004C001800600040019
:10563000060001C0070001C006000000044006C0CB
:10564000010006C0044000000410071004E00180BF
:10565000060004000000044005C0064004400000AD
:105660000000000004007BE040200000000000007B
:105670000000FFF000000000000040207BE004007C
:10568000000000004000800040002000200040009A
:10569000000000000000000000000000000000000A
:1056A0000000000000001FCC000C00000000000003
:1056B00000000800300060000800300060000000BA
:1056C000022003FC1E20022003FC1E2002200000FA
:1056D00000000E1811043FFF10840C780000000039
:1056E0000F0010840F3800C007781884007800007D
:1056F00000780F8410C411240E9800E40084000880
:1057000008006800700000000000000000000000B9
:1057100000000000000007E018182004400200000C
:10572000000040022004181807E0000000000000FC
:105730000240024001800FF0018002400240000060
:105740000080008000800FF8008000800080000052
:105750000001000D000E000000000000000000002D
:1057600000000080008000800080008000800080B9
:105770000000000C000C0000000000000000000011
:1057800000000006001800600180060018002000DC
:10579000000007F0080810041004080807F00000D3
:1057A0000000080408041FFC0004000400000000BE
:1057B00000000E0C10141024104411840E0C000074
:1057C00000000C1810041104110412880C70000061
:1057D000000000E00320042408241FFC0024000033
:1057E00000001F981084110411041088107000002C
:1057F000000007F0088811041104188800700000E8
:1058000000001C00100010FC13001C001000000021
:1058100000000E3811441084108411440E3800002A
:1058200000000700088C10441044088807F00000AE
:10583000000000000000030C030C0000000000004A
:105840000000000000010106000000000000000050
:10585000000000800140022004100808100400002D
:10586000022002200220022002200220022000004A
:10587000000010040808041002200140008000000D
:1058800000000E001200100C106C10800F000000C1
:1058900003E00C1813E4142417C4082807D00000F0
:1058A0000004003C03C41C40074000E4001C00044A
:1058B00010041FFC1104110411040E880070000074
:1058C00003E00C1810041004100410081C10000051
:1058D00010041FFC100410041004080807F0000056
:1058E00010041FFC1104110417C410040818000050
:1058F00010041FFC1104110017C010000800000064
:1059000003E00C181004100410441C780040000040
:1059100010041FFC10840080008010841FFC100401
:105920000000100410041FFC10041004000000000C
:1059300000030001100110011FFE10001000000004
:1059400010041FFC110403801464181C10040000D0
:1059500010041FFC1004000400040004000C0000EC
:1059600010041FFC1F0000FC1F001FFC100400009F
:1059700010041FFC0C04030000E010181FFC1000B2
:1059800007F00808100410041004080807F00000CD
:1059900010041FFC10841080108010800F00000085
:1059A00007F0081810241024101C080A07F2000041
:1059B00010041FFC1104110011C011300E0C000462
:1059C00000000E1C11041084108410441C380000C8
:1059D0001800100010041FFC100410001800000034
:1059E00010001FF810040004000410041FF8100039
:1059F00010001E0011E0001C007013801C0010003D
:105A00001FC0103C00E01F0000E0103C1FC0000061
:105A10001004180C163401C001C01634180C100400
:105A200010001C00130400FC13041C0010000000F4
:105A30000804101C1064108413041C0410180000C7
:105A40000000000000007FFE400240024002000013
:105A5000000030000C0003800060001C0003000008
:105A600000004002400240027FFE000000000000F3
:105A70000000000020004000400040002000000026
:105A8000000100010001000100010001000100010E
:105A90000000400040002000000000000000000066
:105AA00000000098012401440144014400FC00046A
:105AB00010001FFC00880104010400880070000031
:105AC0000000007000880104010401040088000047
:105AD0000000007000880104010411081FFC00048C
